:400000000040002011000000210300002103000010B500F08DF9C04670B512221A4B1A6000F090FE194800F0D7FF012000F0AAFE302000F08DFD164A164B1A60164C802524
:40004000ED052560154A116802230B431360144A144B1A600022144B1A60144A136808218B431360FA20C00000F0ECFD104800F0DFFD802212060F4B1A608022D2020E4BA2
:400080001A60256070BDC04630001040001BB7000600008004010B400C020B4078002E402D3E00007C002E4064F02E406CF02E40DC05000008010B4000010B4010B572B658
:4000C0000022184B1A6000240FE017486200131959000B00411889881A5AC31858880004104300F017F90134E4B2012CEDD900230E4A13600E4A1360992212040D4B1A6093
:400100000D4A117806230B43DBB2137040220B4B1A60C02252030A4B1A60FFF77DFF00F0E9F810BD6CF02E40AC510100000002400800044020500F4000700F4000020440F6
:400140000802044010B5064C2378002B07D1054B002B02D0044800E000BF0123237010BD5810002000000000A8510100084B10B5002B03D00749084800E000BF074803682F
:40018000002B00D110BD064B002BFBD09847F9E7000000005C100020A8510100A00B00200000000010B582B0012801D0282816D10C4A0D4B1A6001AC200002F083FB072368
:4001C0002370200002F0CCFB084A1368802149000B431360002000F08DF9054B188002B010BDC046554300007C002E40D4112E407822002010B501F00FFA10BD10B5002018
:4002000000F060FCC82000F0FBFC012000F05AFCC82000F0F5FC62B600F0B8FE032000F0D3FC032000F07CFC2E4800F00BF92E4B188001E001F0F0F92C4B1B78012BF9D013
:4002400002222B4B1A70FFF7D5FF032001F0DCF9274B1B78022B02D10422254B1A70244B1B78002B02D0012B04D006E00222204B1A7002E002221E4B1A7000F0B6FE0400E3
:4002800003F03CFA062801D0042809D1184B1B78042B05D10122164B1A7000F00BFD1CE002281AD0124B1B78042B0FD10122104B1A70022000F024FC00F01AFC00F0ECFCE8
:4002C00000F00CFC002000F01BFC06E0032B04D10022074B1A7000F0DFFC200000F089FEB1E7C046A501000078220020A82200207A2200200323044A1360044A1360002228
:40030000034B1A607047C0463000304030003140000E3F4010B50A00002101F03DF910BD10B501F0F5F803680C2B00D1FEE7FEE770B50F4E0F4D13E029686B68AC6800223B
:4003400002E001C901C30432A242FAD1E868002202E0002102C304328242FAD11035013E002EE9D101F0DAF8FFF748FFFEE7C04601000000A453010010B50E4A136801211F
:400380008B43136000230AE0032B03D89A000A49505800E009489900094A885001332F2BF2D9FFF78BFE034A116801230B43136010BDC04600001040000000002103000092
:4003C0000000002010B500F0EDFA10BD10B50022134B1A70134B1A70134B1A70134B1A701349488C134B1880888C5880203188791873C97919712821D9811031198200248F
:400400005A8218319982DA82013A1A831F320A4B1A80FFF7D7FF094B1C70094B1C7010BDB4220020AC220020B3220020B2220020A40B002088220020A22200207C220020A7
:400440008422002010B590B00400142220490BA801F099F820231F4AD35C002B05D1FFF7B5FF012120231B4AD154002C2DD01A4B1C6008A805AA426006AB0893002101816A
:400480001B311980598017391971002313701231694401F09DF9002818D1104B0293104B0193052300930BABAE2212010D490E4801F0E4F8002809D101220C4B1A700B3287
:4004C00013210B4810F0B2F800E0012010B010BDB8510100741000208022002079020000005C0100C0000020BD060000A8220020CC51010010B502282FD81C4B1B78062B29
:400500002DD11B4B1B785B072CD4002809D1194B194A9A87C822D200196B0A801B6B5A800CE001280AD1134B96229A87C822D200196B0A801B6B8022D2015A800F4B1870A6
:400540000C482C300DF09CFC00280DD1084A117804230B43DBB2137006E0012004E00420FF3001E00420FF3010BDC046A8220020B4220020A40B002030750000B322002042
:400580007047C04610B50B4B1B78052B0ED10DF027FC0400084B1B88002B01D00AF05CFB002C05D10622034B1A7001E00424FF34200010BDA8220020A2220020037840782E
:4005C000000218437047C04670B5050083890F2B1FD1043031332A00002110F03FF8041E11D16868FFF7EAFF830706D50A4B1B68290082204000984705E0074B1B682900AA
:400600000620FF309847054A137801218B43137000E00024200070BD80220020B4220020024B00225A701A707047C046B022002010B50378042B05D1034B1B78052B01D196
:40064000FFF7A0FF10BDC046A822002010B582B00400FFF7B9FF0F4B1B78DB0704D5002802D1200000F0A0F90A4B1B78DB070ED4002809D001A912238B70A3890B80C870BD
:4006800020680EF04DFD02E020680EF0C1FD02B010BDC046B42200208379002B07D000200BE0C25C002A07D10133DBB200E00023052BF6D9002000E001207047F0B583B02D
:4006C00004000D00A84A117801230B43DBB21370272800D1B1E014D8062870D007D8022865D0052867D0012800D02BE121E0242800D19EE0262800D1ADE0212800D021E1D7
:4007000071E0422800D109E109D82B2800D1CAE0412800D1EEE0282800D013E197E04C2800D106E1FA2800D107E1432800D009E1F7E001AE0727377000237370300003F051
:400740003DF8377001237370300003F037F800F057FF864B1E683000FFF79EFF00280CD0300000F05DFF814E00213068FFF708FF30680121FFF704FF0BE07D4E300000F056
:400780004FFF00213000FFF7FBFE01213000FFF7F7FE00200DF0F8F901A83F230370002343700DF00FFA0622724B1A70CAE02800FFF73EFFC6E02A786F4B1A70C2E02B78C1
:4007C000002B00D0BEE06B78002B06D16B4B0022DA809A806A4A1A606B60634A137801218B431370AEE0604B1B789B0600D5A9E0644B1B78102B02D10522624BDA70624BA5
:40080000187860490DF0FAFA01AB1880002804D05E4B1B6801A936209847534A117801230B43DBB21370584B187856490CF064FF88E06A78564B1A7084E0564B1B88002B22
:4008400001D00AF009FA02224A4B1A707AE00622484B1A7076E0474B1B78022B72D0424A1278D2076ED5404A1278520708D50322404B1A703C4A137804218B43137061E060
:40088000394A1278120708D506223A4B1A70364A137808218B43137054E0032B52D10622344B1A704EE0334B1B78022B4AD02E4A1278D20746D52C4A1278520707D50421ED
:4008C0002C4B1970284A13788B4313703AE0264A1278120708D50622264B1A70224A137808218B4313702DE0042B2BD10622214B1A7027E0244E02222900300000F043FE8F
:4009000000221D4B1A7031789E318900224B591801310432214800F036FE13E0FFF780FE10E06988162900D9172128880EF002FC08E02800FFF78AFE04E0194A1178012309
:400940000B431370084B1A7811231A4209D0064A137801218B4313700C4B1B6829002000984703B0F0BDC046B4220020E40B0020E80B0020A8220020AC22002098100020EA
:40098000A00B0020680C0020B02200208022002084220020A2220020005C0100A42200207C2200207047C04670B582B005008489132C01D0002C2BD1AC235B003C4AD35840
:4009C000DB0204D41300103B1B68DB023ED56868FFF7F4FDC30702D52A26FF3601E095267600132C03D101236A46937002E003236A469370002301932E4B1B78012B2AD1F3
:400A00002D4A117802230B4313700023002429E0002C23D143681A78052A0DD85B780A3BDBB2F42B08D904236A469370031D01932C26FF36002315E0204A137801218B4348
:400A400013702C26FF360023A0240BE02C26FF360023062406E00023002403E02C26FF3601230024002C18D1002B16D1281D40332A0000210FF0F2FD041E0ED12B886A466B
:400A800013800E4A137801218B4313700C4B1B68002B02D0694630009847002C04D0074A137801218B431370200002B070BDC046CC510100842200207C220020B4220020CC
:400AC000A010002004490A68D2B240239A438001184010430860704700020440034A1368802109060B4313607047C04608010B40024A13685B005B081360704708010B40C5
:400B000010B5040000F071FA044A136807218B430C401C43146000F06CFA10BD00010B4010B5040000F061FAE304E022920313401900054C2368054A1A400B0013432360DD
:400B400000F057FA10BDC04600010B40FFFFC7FF10B586B0040000F048FA0E4B1B6800930D4B1B680193033C0C4B1B5D02930C4B1B68039304AA0B4B04936B4605930A4BF6
:400B80001A600A490A4A11601B6800F032FA06B010BDC04608010B4000010B405053010030001040B6EA0000080010401700008004001040024B1B68012018407047C046CE
:400BC0000C002E4001BE704710B504000A4B1B6807221340022B0BD000F007FA03210C40064A13688B432343136000F002FA02E00020FFF7E7FF10BD00010B4064F02E4068
:400C000010B5040006E0084B586800F0E5F9074B9C46644480231B029C42F4D8024B9868604300F0D9F910BD700C00200080FFFF10B5034B1B7B584300F0CEF910BDC04677
:400C4000700C002010B504000F4A116801230B4313600E4A0E4B1A600E4A1368802109020B431360002809D100200CE00120FFF7DFFFFFF79FFF002804D1013C002CF5D12A
:400C8000102000E0002010BD60F02E400220000078002E4010002E4010B500F0A6F9044A136804218B43136030BF00F0A2F910BD10ED00E030B583B000F097F904000E4A58
:400CC00013685B005B0813600C4B1B889BB20C4A13600C4A116804230B4313600A4D2B6801930220FFF71CFF30BF019B2B60200000F07FF903B030BD00000B4052F1FF0FF6
:400D00000C000B4010ED00E000010B40034B1B68002B01DA012000E00020704704010B40024B1868800F80077047C0460C020B40034B1868C0231B02184000D0012070476D
:400D400000010B4010B50D4B1A6801218A431A601A68022082431A60094A10683024A043203C204310601068093CA043014311601A68802109060A431A6010BD00F02E4092
:400D800000FF2E4070B51D4B1B6801241C40002802D0012816D02BE0184B19680122914319601968022081431960154B19682E3081432038014319601968093881430A4302
:400DC0001A6018E00D4B1A6802218A431A600C4A10680725A84301431160116830208143103801431160196801220A431A6002E00020FFF7E7FE200070BDC04600F02E4020
:400E000000FF2E4010B50400022802D90020FFF7D9FE044B1868E4000134E0400123184010BDC04610020B4070B504000D00022802D90020FFF7C6FE2000FFF7E3FF0028A1
:400E40000AD1064A1368E40003210800A04083430D40A5401D43156070BDC0460C020B4010B5084BDB68002B0BD0074A136801218B431360034C21690020FFF7D5FF00230D
:400E8000E36010BDA410002010020B400300034A1068DB00D8400323184070470C020B4010B504000C4A136803431360C30704D50020FFF7A7FF0028FAD0E30504D5012022
:400EC000FFF7A0FF0028FAD0E30304D50220FFF799FF0028FAD010BD10020B4010B5012809D0002802D0022809D00BE0084B18680004000C0AE0064B1868000C06E0054B51
:400F0000186803E00020FFF75DFE002010BDC04600020B4004020B4010B50020FFF772FF002803D00022184B5A6121E00120FFF769FF002803D00122134B5A6118E00220F4
:400F4000FFF760FF002803D002220F4B5A610FE00D4C0123E360002363610020FFF796FF206100210020FFF75FFF0120FFF798FF054B5869FFF7B2FF0400034B5869FFF722
:400F8000ADFF8442F9D010BDA410002010B5FFF7CFFE00281CD1FFF7B9FE002818D0FFF7BFFE00280FD100F020F80400FFF7B4FF084A13685B005B081360FFF751FF200027
:400FC00000F017F804E0034A13685B005B08136010BDC04604010B400230800803D00138FDD1C046C046C0467047EFF3108072B6704780F310887047016070470160704752
:40100000324B1A781202324B1B781A43314B1B781B02314909780B4330498B4201D1072A06D0D42109018B4206D1042A04D102E02B4B042200E02A4B2A490B602A4B1A6046
:401040002A4B1B781B022A4A1278134380229201934202D0002B02D002E0264B00E0254B254A1360254B1B781B02254A12781343244A934205D0244A934204D0052B05D1F5
:4010800003E0224B02E0214B00E0204B204A1360204B1B681B09204A1268AA2A15D1012B13D9164B1B780E2B0FD11C4B1B781B021B4A127813431B4A13601B4B1B781B024B
:4010C0001A4A127813431A4A13607047D9F0FF0FD8F0FF0FDFF0FF0FDEF0FF0F580B0000580D00006C002E4074002E40DBF0FF0FDAF0FF0F0220000078002E40DDF0FF0FA0
:40110000DCF0FF0F0F0F000005050000050F000080002E40EC0F00F0E00F00F06DF2FF0F6CF2FF0F84002E406FF2FF0F6EF2FF0F94002E4010B5FFF77BFD10BD10B5FFF77C
:401140005FFD10BD10B500F04BF810BD10B500F04FF810BD10B500F04BF8034800F02AF8032000F02DF810BD1D12000010B5024800F046F810BDC0461D1200000220FF309F
:401180007047C0462B2070472B2070472B2070472B2070472B2070472B2070472B2070472B2070472B2070472B2070472B2070477047C046014B18677047C04600000020F7
:4011C00010B50400FFF711FF044A1368C0218B43A4011C431460FFF70CFF10BD0CE400E080225201014B1A607047C04600E100E080225201014B1A607047C04680E100E0A0
:4012000010B50400FFF7F4FF2000FFF7D3FF0320FFF7D6FFFFF7E4FF10BDC04610B513F0AFFF10BD002243088B4274D303098B425FD3030A8B4244D3030B8B4228D3030CD5
:401240008B420DD3FF22090212BA030C8B4202D31212090265D0030B8B4219D300E0090AC30B8B4201D3CB03C01A5241830B8B4201D38B03C01A5241430B8B4201D34B03E9
:40128000C01A5241030B8B4201D30B03C01A5241C30A8B4201D3CB02C01A5241830A8B4201D38B02C01A5241430A8B4201D34B02C01A5241030A8B4201D30B02C01A5241F7
:4012C000CDD2C3098B4201D3CB01C01A524183098B4201D38B01C01A524143098B4201D34B01C01A524103098B4201D30B01C01A5241C3088B4201D3CB00C01A5241830888
:401300008B4201D38B00C01A524143088B4201D34B00C01A5241411A00D20146524110467047FFE701B5002000F0F0F802BDC0460029F7D076E7704703460B437FD40022F3
:4013400043088B4274D303098B425FD3030A8B4244D3030B8B4228D3030C8B420DD3FF22090212BA030C8B4202D31212090265D0030B8B4219D300E0090AC30B8B4201D34A
:40138000CB03C01A5241830B8B4201D38B03C01A5241430B8B4201D34B03C01A5241030B8B4201D30B03C01A5241C30A8B4201D3CB02C01A5241830A8B4201D38B02C01AB7
:4013C0005241430A8B4201D34B02C01A5241030A8B4201D30B02C01A5241CDD2C3098B4201D3CB01C01A524183098B4201D38B01C01A524143098B4201D34B01C01A524179
:4014000003098B4201D30B01C01A5241C3088B4201D3CB00C01A524183088B4201D38B00C01A524143088B4201D34B00C01A5241411A00D201465241104670475DE0CA0FF0
:4014400000D04942031000D34042534000229C4603098B422DD3030A8B4212D3FC22890112BA030A8B420CD3890192118B4208D3890192118B4204D389013AD0921100E090
:401480008909C3098B4201D3CB01C01A524183098B4201D38B01C01A524143098B4201D34B01C01A524103098B4201D30B01C01A5241C3088B4201D3CB00C01A52418308D3
:4014C0008B4201D38B00C01A5241D9D243088B4201D34B00C01A5241411A00D20146634652415B10104601D34042002B00D54942704763465B1000D3404201B5002000F0CC
:4015000005F802BD0029F8D016E770477047C046014B18687047C046541000200E4B70B500251E000D4CE41AA410A54204D0AB00F35898470135F8E713F022FF084B002573
:401540001E00084CE41AA410A54204D0AB00F35898470135F8E770BD8C5301008C5301008C5301009453010030B50024A24208D0035D651C0C5DA34201D0181B02E02C00E7
:40158000F4E7002030BD002310B59A4203D0CC5CC4540133F9E710BD03008218934202D019700133FAE77047134A1088810703D08107890F401A001D11791030484381B283
:4015C0005088820703D08207920F801A001D800040180A494030098980B2CA0701D0503080B2890706D504495422091F09785143081880B2704700008A0C0020D8100020F1
:4016000010B501F0D5FF10BD10B501F0D7FF10BD10B501F0E9FF10BD10B500F05BFA10BD10B50749044609780220002907D1204602F032F8002802D120460CF0B7FB10BD57
:40164000360E002070B504460120002C12D02368002B0FD0616800290CD0074D06222889208118462968FFF78EFF6968606809780170002070BD0000D8100020FFB585B0FC
:40168000002768460E9D07734F481C460078002802D0082009B0F0BD10990F9801900095029105A807C800F007F90028F2D16946264603AB84460873002C19D0002115E09E
:4016C0008A00B75A082F09D990198078002805D0083FB7521878401C187005E0002914D00027B75290198770491CC9B2A942E7D360460028CED10F98002809D0109901F0DE
:4017000007FB002804D00120C4E701208446EFE701F06AFF2D480021416081600599016021888180022D07D3A1798171A17AC171A1890181218A418100211EE0481C19E00C
:4017400082008B00A75AE65ABE46BE4211D26F463E80B4461E190296B678BE7001967646E6521719029EBB78B3706646A652019EBE70401CA842E3D3491CA942DED3134822
:4017800022460C3000906846037B0799069800F01BF90028B8D168460B4C007B60700B480C3001F051FF0028AED1084907480C3109F008FA0028A7D109F022FA0028A3D1E6
:4017C0000121217066E70000840C0020CC100020F8B5054636480F460078002802D002242046F8BD002F60D000243249002D16D02A89D0070DD02868002808D003881B3BD6
:40180000E12B04D24088FB2801D81B2801D2012409E0900707D56868002804D1F7E70020088108604860002CDAD122482E8906811F481B21801D01804180042101711C490A
:401840000020891C0870F00705D019480622801D2968FFF798FE1749B00703D56A68144812788270124D0E46AD1D281F0D60486001F038FF284601F027FF308910F0C4F888
:4018800030890FF017FA28880FF01AFA308910F03DFA03461033FFF787FE1F21C018890140183880A91F88809AE7012498E70000840C0020D8100020FFB58446384F1C46DF
:4018C0000020BB883F78054602460646002F11D100290ED0029999420BD36146002908D0002C06D00A99002906D02E4B0B99994202D2012004B0F0BD002144E0AB001F19C1
:40190000BF78002F3BD0E35A002B38D07B43591889B22B0000F04AF8050410161C253100A7782388BC46FF27233BEB37BB4222D26346032B1FD322E0A388002B1FD0302B90
:4019400019D31CE02389002B19D0282B13D316E0A289002A13D01346134F233BBB420AD20DE0268A002A0AD033460F4F233BBB4201D2964203D901200EE0002001E00028D4
:401980000AD16D1CEDB2099B9D42B7D31C2463435B1802998B42ACD89642AAD8AAE70000840C002079020000BAFF000030B47446641E2578641CAB4200D21D46635D5B0089
:4019C000E31830BC18470000FFB583B0002469460C801F4606468C80002806D00598002803D004983043800701D0012466E0002FFBD03449049809888842F6D3FFF7B6FB58
:401A0000FFF7A4FB00F012FC002855D100F07AFD002851D12C49084601F0AEF905042D0C4AD12A480499066081800021C18007810C98007AC00704D0684601F0EEFD0400B5
:401A400007D10C98007A800703D501A801F0EEFD0446BF1DFEB2002C20D13146059800F05DF804001AD110F05FF9040016D16A461088928808368518144AF1B29088D2885E
:401A8000AEB29319984207D3401B801A80B201F063FC050007D000E0FF25012400F05EFA002D04D008E0F8B200F01CF9F6E700F081FA07490120087000F0CAFB204607B007
:401AC000F0BD0000880C0020091C0000E4100020900C002010B503480078012801D101F0DDFA10BD900C002070B5084B0446DA889E8800205518B54206D81D68AA18226047
:401B0000DA885118D98070BD032070BDE41000200148008970470000E4100020F0B587B007460D4600208900009006916846FFF7DBFF844600285DD13048009901600021D6
:401B400017E02E4B88001A680629115406D22C4C0419667882185670628805E0C419203CA67A8218567022891B68C018491C4280C9B2A942E5D300242DE0601CC2B2059023
:401B800025E01E4FA30039689600581840887118039604904E88B04217D938466F46FE80B6464F786E4677710297049F4F800168039F5E18767879184E70016876465918C4
:401BC0004E800068029F18184770521CD2B2AA42D7D30598C4B2AC42CFD36046002809D168460699FFF780FF8446002802D1054900980860604607B0F0BD0000940C0020B5
:401C0000B8530100980C00207047000010B5002809D005494A68002A05D0011F08788000105801F047FB10BD940C002010B50446FFF76EFFC0B2801DA0420CD307484068D7
:401C4000002808D0A100405801F0A6FA002801D00470001D10BD002010BD0000940C0020F8B516460D460446FFF752FFC0B2801DA04203D20020C0430090F8BDB2B2E9B27C
:401C8000684601F0AFFA0099481C03D0024AA000526811500098F8BD940C0020F8B50746FFF736FF801DC6B20A49002005460C680DE06178002907D06188B94202D3207875
:401CC000FFF7B4FF002804D1241D6D1CEDB2B542EFD3F8BD940C002010B5002801D0FFF795FF10BD70B506460948002504680BE06178002905D062882078121D0023FFF7B3
:401D0000AFFF241D6D1CEDB2B542F1D370BD0000940C0020FFB581B00A9F16000C4620D000F0F2F8054604281BD0002F0CD03846FFF7B4FF20492A0151184860002810D0E3
:401D40003A460499FFF71FFC1B4928010E504618778101980570200406D47D20C000444304E0FF2005B0F0BD6404640C00F0BAF80746042807D000F04FFAA0420BD800F0E7
:401D80004BFA201A03E0204600F0AAFA0020F06035720020E6E700F03FFA009000F0B6FA00980121001B009000F0ECF802493A0151180098C860E6E7F0100020F8B50601E1
:401DC00016483418217A042903D0E068002802D017E00020F8BD00F01FFA054600F096FA00F0A0F804280CD001010C480F18F8680021451900F0C6F80020F860284600F04C
:401E00006FFA6068054D002801D0FFF765FF042020720020A8516081E060DAE7F0100020FEB500266A46304601232549050169180D7A042D02D0C96800291BD0002111548E
:401E4000401CC0B20428F0D300246846005D002830D01B48210108184189476805680291002101604160042241810272C160002E02D015E01354E3E700F054F804280ED024
:401E800001010F4808180190C6680021304600F079F801980021C160304600F021FA0126002D07D038460299A847002F02D03846FFF712FF641CE4B2042CC6D3FEBD000043
:401EC000F01000200EB5002005216A4600901181508103486946006810F09FFD0EBD00009C0C0020074A0020010189180B7A042B02D0C968002903D0401CC0B20428F3D3FE
:401F000070470000F01000200549002002015218127A042A03D0401CC0B20428F6D37047F010002030B50A4B04200A4C00210A011219157A042D06D0D268002A03D09A4214
:401F400001D808461346491CC9B20429EFD330BDFFFF0000F01000207047000030B50020074C05460423020111190B72A5504D60401C4D81C0B2CD600428F4D330BD000091
:401F8000F010002030B5094C00231A011219157A042D04D0D568002906D02D18D5605B1CDBB2042BF1D330BD2D1AF7E7F0100020002070471CB5002469460C70142001902F
:401FC0002346054A054810F02DFD04480068401C00D1FF2420461CBD312000009C0C00203EB5124A0146FF2000230124126800290DD0012914D0042908D10420694600935F
:4020000008814B81104610F008FD80B23EBD68460093048143816946104610F0F9FCF4E768460093048143816946EBE79C0C002070B545890468416800890300FFF7B6FC55
:4020400008280509091E22282628002007F0D6FA1EE0022908D0C8B22A4621460EF076FD2046FFF739FE13E002202A4621460EF06DFD2946204600F00DF809E0002010F0FF
:40208000CBF905E02046FFF7CBFE01E0FFF790F8002070BD014B0022DB681847A00C002070B5448905680089022803D0032809D0FF2070BD2246094C0023A4682946012019
:4020C000A04708E0FFF7A4FA241DA2B200232946022008F02AFC002070BD0000A00C002070470000024800214160018041807047A00C002070B50C46002186B016460391B7
:40210000012802D0022859D116E003A9012008F061FC01281BD1039D324621462846FFF732FA0095287801900220694608814E816846FFF7B5FF41E0214D002B686809D06A
:40214000049004A9022008F045FC01281DD0022006B070BD002812D0298840182146FFF712FA28880024801980B228806988091D884206D12C801348FFF792FF03E0032099
:40218000E6E788421AD96C6018E004986860E278A378110219430B4A698000231060E3565360032313815181A1788170E178C1706178417021780170042028800020C7E77E
:4021C000A00C0020301100203EB515460C46022803D004280CD000203EBD0091019002206946088107484A81006810F016FC07E00EF0ACFC044B0022DB68294620469847ED
:4022000001203EBD9C0C0020A00C0020014AD16090607047A00C0020034801688068081A0A214843000970473C11002010B5FEF791FF482204490548FFF7A5F9034901200F
:40224000C870002010BD0000D45301004015002010B5FEF777FF10BD70B5134C2368002B08D0207B1149C20705D04008400020738868A08070BD88680B4AA18880B2926808
:40228000814203D90A4D691A091802E0814202D2411A5118A160A080A0689842EAD310F0D9FB00F013F870BD3C110020C0102E40FFFF000010B508461946FFF7A7FF10BD07
:4022C000704710B5FFF780FF10BD000003480021016041608160C160704700003C110020024610B5FF20002A0CD0FFF7EFFF064C0321207B0843207310010A21FFF718F845
:402300002060002010BD00003C11002000B504480A21806848430209FFF7D8FF104600BD3C1100200248007B8007C00F704700003C11002010B54B490868002802DA4A4B2B
:4023400001221A70022290430860484800694549C00B4031096A0246C907C90F0A4259D0012000F05DFB3F480E216C30FEF746FE3E4820218430FEF741FE3C4814219C308E
:40238000FEF73CFE3948FF21C131A430FEF736FE3648FF212F31B030FEF730FE33483449BC30FEF72BFE31483249AC30FEF726FE30492E48491CB430FEF720FE2B482E493D
:4023C000B830FEF71BFE29482C49CC30FEF716FE26482B490830FEF711FE24482949A830FEF70CFE214828498830FEF707FE1F4826498C30FEF702FE1C481921C9029030ED
:40240000FEF7FCFDFEF7FCFDFEF7B8FEC0B2022812D01FE000290BD0002101420AD0114801216030FEF7EAFD0120FEF787FE97E70121F2E7FF2010BD15491648FEF7DEFDE3
:4024400014481549001DFEF7D9FD124800210830FEF7D4FD54200449C043891C0870002010BD000000F02E40B00C002000002E40320300002F3F0000310200001052000093
:40248000EC160000FA12000031D000003AE300009956000080012E40F80F000070B50646581C80B245086D00002408E0304600F0C1F81055000A1119A41C4870A4B2AC42BA
:4024C000F4D3D80705D0D0182038D15CC47FD454C17770BD30B50A4C002100195B1E07E0541864782502545C2C430480891C89B29942F5DB994201D1515C018030BD0000EA
:4025000000102E4010B5FF2000F08AFA0F49FF2048700E481021801D41800121417001700A490020C91C4870FFF704FF04000AD100F02EF907210648FEF75EFD0448072134
:402540001830FEF759FD204610BD0000B00C0020CC112E4070B5002405465B1E0AE0284600F068F8010A161971702D1D1055A41CADB2A4B29C42F2DB9C4203D1284600F0BF
:4025800059F8105570BD000070B500210A4D5B1E0AE0541864782602545C344346193480001D891C80B289B29942F2DB994202D1515C4019018070BD00102E40F0B5059994
:4025C000091FCFB200217E1E0BE0541864782502545C2C43164D45192C80001D891C80B289B2B142F1DBFC0712D01C78515C24020F4A0C4381180C809C785D78001D21025F
:4026000080B2294384182180001D80B2D9780CE059781A7809021143054A84182180001DD9789B78090280B2194380180180F0BD00102E40014940180088704700102E4028
:4026400010B50B490020487000F0A2F8002000F00DFA002000F0FAF907210648FEF7CCFC044807211830FEF7C7FC002010BD0000B30C0020CC112E4010B50C48007801284D
:402680000FD101F001F800F0DDF8002804D10848016A490849000162054802213030FEF7ADFC02490020C91E087010BDB30C002040F02E4010B50B46062812D006DC012823
:4026C0000CD0032801D1FFF7BBFF10BD0A28FCD00B28FAD105480078107010BDFFF712FF10BD1146184600F0DDF910BDB60C0020F8B5244DAC6A0127A007234E002816DAEC
:40270000307806280ED1286A384328621F480069F903084381B21D481030FEF76FFC042000F07EF9174802212830FEF765FCE00718D000F0EBFF01280FD1002001F038F850
:40274000062000F06DF91049FF20C91E48707078002802D1686B384368630A4801212830FEF74AFCE0050BD53078042802D1052000F056F90348FF2101312830FEF73CFCD1
:40278000F8BD000040F02E40B30C002000002E4010B503212348FEF731FC0120FEF7CAFC20483038406A204C80076178800F890001431C480C38FEF721FC6078002808D0F3
:4027C000401E022181401820FEF79CFEC000083800E0B82081B21548FEF710FC1348032109021438FEF70AFC10481149B830FEF705FC612189010F48FEF700FC0D48032159
:40280000001FFEF7FBFB0C490C48FEF7F7FB0B480B496038FEF7F2FB084801218838FEF7EDFB10BD70F02E40B60C0020D8102E4090890000041E2E40FF0F000058122E406C
:4028400020900000044800684007400F022801D0002070470120704700010B4000B5FFF7F1FF002805D009480168C908C900016000BD0748016A49084900016205480169F0
:402880000122D2039143016100BD000000010B4040F02E4000002E400849087806280BD148780749002803D1486B400840004863C86A01221043C86270470000B30C0020A0
:4028C00040F02E400121002807D005494A8842804A784270097801700021084670470000B60C00200148007870470000B30C002002484078022800D001207047B00C0020C2
:4029000000B50300FFF752F8080D050D0B070507090D012000BD032000BD042000BD022000BDFF2000BD0000074A9168D26889B2064B92B2994204D105498A4201D10121D8
:4029400000E000210170704780002E4033D000003FE300000149487070470000B30C0020F8B504460120002C52D0217808294FD2617804294CD26088102166283DD800282A
:402980003BD065882348662D45801BD801270026BF020A2D33D90A212846FEF7C9FCC0B2072800D907200A2141438D4204D9691ACEB21F2E00D31F264101314339431648D0
:4029C000FEF71AFB134D60786870217829701349496A8A0781001148920F11432430FEF70DFB687800280CD0401E022181401820FEF788FDC000083804E06180C1E7294617
:402A0000DCE7B82081B204482030FEF7F7FA0020F8BD0000B60C0020B8102E4040F02E4010B50446FEF792FB072C01D9FF2C01D102480470FEF786FB10BD0000B30C002040
:402A40000149487070470000B00C002010B5064A012805D01921C9021046FEF7CFFA10BD1D21C902F8E7000090002E4010B50A4A141D012808D009491046FEF7BFFA0849F0
:402A80002046FEF7BBFA10BD04491046891CFEF7B5FA0349491DF3E788002E4031D000003AE3000070B50C460546FEF767FBC0B202280E49287804D0FF2810D04C280CD8CE
:402AC00010E0FF2809D10A4AD0680004800F032801D0087807E09069000A553803E00878207070BD4F382070087070BDB20C002000002E40F0B50122002834D0002932D08C
:402B00000424420600D00524792342065B06D21800D0641C034600221EE00C2516466E43124D00277519AF72104F002ABB51696007D0661EB24209D10D4E86197606760E50
:402B400005E05E06760E8027BE1B00E080269B198919521C2E81D2B2A242DED303480549006B002288611046F0BD0000C813002079020000BC0C002018B500206946087072
:402B80000A48006900280ED0132149014018047E684604704F21C900054800F059F8A04201D0012018BD002018BD0000BC0C00204C110020074900200C2242435218927A77
:402BC000012A05D0401CC0B20628F5D30020704701207047C8130020F8B50E000446154609D0194F19497868A04202D94018A04201D38D4201D90120F8BD31462046FEF768
:402C0000B3FC00281ED02A4631462046FEF7BBFCE8B200210C224A43D21913895568EE18A6420BD90126641B1B1B9672834209DA1469C01A044AC0B220329676491CC9B269
:402C40000629E7D30020F8BDC813002079020000034610B50020024604E09C5C2018521CC0B292B28A42F8D310BD000070B500F05FF8084C064A216907480D46FEF783FC5E
:402C800005492846FFF736FFFFF776FF207070BD79020000BC0C00204C110020002070470020054A002902D0012902D002E0906000E0D06000207047BC0C002070B5084CCE
:402CC000154608460549E26889182A46FEF75BFCE0684019E06028B270BD00004C110020BC0C00203EB50A226946FFF7E7FF044606480A2200686946FEF736FC002802D043
:402D00000020C0433EBD20463EBD0000C00C0020002802D0044A914201D2FF20704703494A6108610020704779020000BC0C0020024800218160C16070470000BC0C0020BE
:402D400070B5074C15460548A26880182A46FFF743FFA0684019A06028B270BD4C110020BC0C002010B503490A220968FFF7E8FF10BD0000C00C002010B50F4A0023136024
:402D80000E4A13600E4B18600E4801600E49012008600E490860000290600E490C4808600D4914300860FF381538506000F0BCF800F0CAF9002010BDF00C0020D80C002082
:402DC000040D0020080D0020F40C0020E40C002010150020E80C0020FC0C0020014610B50020002910D0094B1A689C685118A14209D25868196080188A0704D08A07920F1E
:402E0000891A091D196010BD002010BDD80C0020F8B50024164E671E321F3D463168136806E01422624310328A58521C1BD0641C9C42F6D36A1C14D02C461422544322467A
:402E40000C3288500C214843FFF7C8FF3168002808510AD031680020103408517068401C70602846F8BD2546E4E73846F8BD0000E80C0020F3B50026F64381B000281BDB83
:402E80001E490968884217D80299002914D01B4F142204463F1D54432546396810354859401C09D0FEF752F938682F1F4159C359994203DBFEF746F93046FEBD2146083133
:402EC0000091465801590C20704308180C220299FEF759FB0948761C001D0068C159B14200D100260549009A091D865008684159491C4151FEF726F90020FEBDE40C0020E8
:402F0000002803DB07490968884202D90020C043704704491422091D096850431030085870470000E40C0020F0B500200D4A451E0346171F50600FE01426014671431468E9
:402F40000E1DA3510C461668083433511668083435511468401C635039688842ECD30020F0BD0000E80C0020F3B50026F64381B0002841DB2349096888423DD802990029D0
:402F80003AD0204F142204463F1D54432546396810354859401C2FD0FEF7D8F83868415900292BD0211D009146580C21005971430F46C1190C220298FEF7E5FA11480021C9
:402FC000001D0068761C00590C34C0190160416081600C48001D00680159B14200D100260849009A091D865008684159491E4151FEF7A8F80020FEBD3046FEBDFEF7A2F82E
:40300000FAE70000E40C0020FEB504460D4600201E49089E0860471E009001900290002C11D0486885420ED2002A0CD0002E0AD0642E08D808460C3001681C2068430C18C0
:40304000207A002801D03846FEBD0120226020721846FFF7DDFE6060401C13D06681A6810A4827610C3067610179A94200D205710021684601810A462846029B00F040F8B4
:403080002846FEBD00202072DDE70000F00C002038B50124009400F039F838BDFEB50027164EFF433D4600240EE01C20316860430818017A002906D04068FFF721FF00288C
:4030C00001D0254603E0641C3079A042EDDA681C12D01C2130684D434419FEF737F869466068FFF741FF0546FEF72CF8002DD9D1216868468847D5E7FEBD0000FC0C002006
:4031000038B50024009400F001F838BD1FB500220C49541E0A60002811DB496888420ED808491C220C31096850430818406801A9FFF7A0FE401C02D0002004B010BD204665
:40314000FBE70000F00C0020F0B50021114A4D1E174611710C3F0B46BD6016E008461C2460431668041D355114680646235014680836A3551468361DA353044616680A3429
:40318000335318301468491C255078688142E5D30020F0BDFC0C002038B500210091002811DB0F49097888420DDA0D4D04010C3529680859002807D0201D0818694600F0D1
:4031C0006FF9002801D0002038BDFDF7BFFF28680F34015D491E0155FDF7B4FF009838BD0C0D0020F7B582B0002502986E1E06602E48D21C024017462D4A2C4610460C3837
:403200000178106805E02301C358002B0FD0641CE4B28C42F7D3711C28D03401211D40180191039900F02AF900281FD101E02646F1E71F48016820460C300F521C48039920
:40324000026820460E30115419480399026820460F3011540398784300F0A0F8144900280968085102D00024009011E001251AE00F48016801980818009900F02CF9002857
:4032800001D0012502E00098C0190090641CE4B203988442ECD3002D05D10298066004480179491C0171284605B0F0BDFCFF0000180D0020F8B50D4600216A468C4611801A
:4032C000002839DB23490978884235DA214B04010C3319680A59002A2ED020460C300B5A801C0E5C184670438018954224D3854222D2002006E007465F43BF18AF4206D03E
:40330000401CC0B2B042F6D36046002814D0114E271DC8190C366A46294600F006F900280AD168460088012808D030682946C01900F0D1F8002803D00120F8BD0020F8BD05
:40334000FDF704FF30680F34015D491C0155FDF7F9FEF3E70C0D0020F8B50F46002400F031F8002817D10C4900220B460C334A600EE021011D680E466A501D680C36AA53FD
:40338000B61C1D680F31AA551D68641C6A54E4B2BC42EED31A71F8BD0C0D002000280BD0C01C074A81085068890053884118994203D8936851601818704700207047000098
:4033C0000C0D0020F8B5064600200F4D009029700C0121466846FEF787FB00280CD129460C3100980860301B001F84B221466846FEF77AFB002801D0FF20F8BD6C8000983C
:40340000A8600020F8BD00000C0D0020F8B5002827DB19490978884223DA174C05010C342168485900281CD028460C30085A009028460E300E5C401C0E5420682F1DC019F1
:4034400000F064F800280CD12068002445590EE0094829460C300068C01900F03CF8002801D00120F8BD00982D18641CE4B2B442EED30020F8BD00000C0D002030B50D46A3
:4034800004000BD0A800FFF789FF6060002805D000202570C0436080002030BD012030BD70B50D46040005D0002D03D00220205E002801DA012070BDFDF748FE0221615E39
:4034C00060688900405828606088401E6080FDF739FE002070BD70B50D46040007D0002D05D002212078615E401E814201DB012070BDFDF72BFE6088401C00B260806168E7
:4035000080000D50FDF71EFE002070BD10B5040009D0227800216068FEF73EF80020C0436080002010BD012010BDF0B500231D46002802D00224045F0AE00120F0BD46680F
:403540009F00F6598E4201D1012503E05B1CDBB29C42F4DA15700020F0BD00000148007870470000200D00207CB505460024FEF74FF8A8796946087000A806222946013057
:40358000FEF701F80021684606F0FEFA0C2806D0072806D01F2806D0122806D006E0022404E0042402E0272400E0012420467CBD01480121417270474816002010B50228F9
:4035C0000BD0032802D0042809D102E000F094F905E000F03FFAFF2801D100F04FFAFFF781F9FFF78DF910BD10B500F077FAFFF779F9FFF785F910BD70B504460025FEF73D
:4036000007F8002C06D0A079012803D8214603F06BFB00E00125284670BD01460120002902D05020088000207047000001460120002905D0034854220078504308800020FF
:4036400070470000220D002010B502460D49FE204870032410460FF003FD002810D10FF0A7FC00280CD107F011FA002808D100F06BFC002804D106F087FD002800D10024F1
:40368000204610BD200D002002480021018280210180704700102E4070B50025044600280ED0A07901280BD8FDF7B2FFA0790028204602D003F058FF03E003F02DFF00E03C
:4036C0000125284670BD0000014610B50120002904D006220248FDF756FF002010BD00002C0D002001460120002903D0087802490870002070470000220D002010B5FFF756
:40370000F1F8012801D1FFF7F3F810BD0148007A704700004816002038B504460120002C20D0617801291DD800290BD0FF25E535FDF76EFF0C4828180088C0B220700728A3
:4037400003D00EE0FF25CD35F2E70020694608706846FFF7E9F869460878012801D108202070002038BD000000102E40014A002192681047200D002008B500226B461A7024
:4037800026280CD0094A342852680BD0352805D1900703D50021352007F054FA08BD19462620F9E7D007F9D03420F5E7200D0020014908727047000048160020F8B50446E7
:4037C0000120002C26D06178012902D92278092A20D8002905D0FF25E5352078092803D004E0FF25CD35F8E708202070FDF710FF2078114F114E08280DD00020FFF736F9BE
:4038000070780128207810D00D4969180880FE2070700020F8BD0120FFF728F90720B8810549203188800120F2E7B8810248217820308180EBE70000C0112E40200D0020C9
:4038400000102E4070B50E46050001D0002400E00C4C002C11D0E28A500609D5D107C90F022003F07DFFE08A40218843E08204E0D107C90F012003F073FF3146284603F047
:40388000B9FB70BDA8150020F8B50546002004460D4E009013E022466946284601F0FEF90098002801D00FF0BDFBA878214603F01FF9A878214603F00DF9641CE4B2308A73
:4038C000A042E8D8F8BD000074160020064A02235188891C89B25180814201D8102900D95380508870470000320D00200148407870470000320D0020F8B54E4CFEF7F2FF15
:40390000012847D14C480078002843D003F0FAFA00283FD005F0DAFD00283BD0474E7078C00703D000F090FD012833D0307E00287DD17078002500285BD0000706D5404834
:403940008089070B00F02EF9384370D13B484178684605F0D9FB21793A4CA2788918C9B2814262D803F0CEFA002860D0344860300789324E203603F0ABF86846008803F00F
:40398000E1F803F0ABF930490988884203D10120FFF746F84BE02D49012008702748807B00281DD0002F1BD04036F07E002817D123486030008821494000C0314989814220
:4039C0000AD26078002807D103F0F8FE2049088A03221202104308822078002800D0257003F004F90120FEF7B5FF00F099FC174C15E003F087FA002819D0102403F06EF94A
:403A0000214603F01DF803F09DF8104C0120207003F0ECF80020FEF79DFF00F081FC20780128B4D1FEF71AFF25700020F8BDFF20F8BD000080150020B00C002088150020AD
:403A4000A0102E404A0D00205C0D0020320D0020E0112E4010B50848FF244078002809D103F050FA012805D1FEF706FE0720FEF7D7FF0024204610BD8815002038B5FEF75B
:403A800031FF012801D0002038BD03F03BFA00280AD0114C6078C00703D000F0D5FC012802D0207E002801D0FF2038BD617800290FD0684605F028FB022806D96846008881
:403AC00003F040F8012003F09BF80320FEF7A8FFD9E70020F7E700008815002038B51E4CFEF700FF042813D0052811D0062812D003282AD007280AD1002069460870024684
:403B00000120FEF7D7FDFEF7EDFE0128FBD138BD00F026FC38BD03F08BF800F021FC03F017F98007800F0228F4D10C4841880029F0D05B21095D0029ECD101210170A07DC1
:403B40000140022003F00CFE38BD03F075F80120FEF766FF38BD0000A81500204A0D0020F8B50646002403F069FE0546304603F07FFE03460A480021068A0DE001228A40FE
:403B80001046174628401F40002803D0002F01D1224394B2491CC9B28E42EFD82046F8BD7416002070B500252C460A4E03E0002C01D0002000E030460079002803D0204664
:403BC000FFF7CEFF0543641C2406240EEFD0284670BD0000A81500201CB50020694648706846FFF799FD01AA69460A20FEF762FD6946042008561CBD70B50D4601F07EFD4F
:403C000004000BD02079002808D0FDF701FDE178A0782A4603F09CFA002070BD022070BD0148007870470000801500204030C07E002800D00120704700B500F001F800BD0E
:403C4000902148430749084A40186030417F491CC9B24177D289914201D300214177C8B270470000881500207416002013B501F045FD04000BD002F0D6FA002807D02146B1
:403C800001AA0A310620FEF715FD00201CBD02201CBD000010B50C4601F030FD00280AD002F0C1FA002806D0224604490A20FEF701FD002010BD022010BD000069150020CF
:403CC000F3B581B0074601460026029803F0AEFD0446002F01D0002500E0154D002D21D0284601F041FD032C04D13946029803F0F9FD06463846029902F0ECFE032C06D041
:403D0000002C10D00121384601F01EFF03E03146384604F0B3F8284602F0ACFD0221284602F0C2FDFEBD3846029902F0D3FEFEBDA815002010B5044600F0DAFA002804D108
:403D400005F04CF9002801D00C2010BD2078611C03F012FBFF2801D01F2010BD03F058FBFF280AD02178621C02F03CFE044821780068026B601C904710BD072010BD0000A6
:403D8000700D002010B505F029F9002801D00C2010BD03F0D3FA03480068C06A8047002010BD0000700D002070B50D46044610210FF078F81021601806460FF073F8334670
:403DC00010221946204605F03FF9102130460FF069F802202870204606F0FAF870BD0000F8B504464078217802028006870FE0781143A67809050002090D0643084601F083
:403E00007DFC00210546F2B2002812D0002C10D0022F0ED0032F0CD0002A0AD00279092A07D0002A05D0134A5A23527E1B5C9A4207D82889002105F0B8FF20460FF0F2F895
:403E4000FF21002914D10C48224600682946436930469847C0B2FF280AD128464030817EF2B2491C8176FF232146284600F00DF9F8BD0000401500208C0D00200020704788
:403E800010B5044605F0AAF8002801D00C2010BD2078611C03F070FAFF2808D003F09CF9044821780068426B601C904710BD1F2010BD0000700D002010B500F0ADF906F05D
:403EC00063F9002010BD000010B504460F4802F0DBF9012817D00D4805222146B030FDF752FB0A490522B0310846C038FDF74BFB01F002F8054880222038C17B1143C17368
:403F000000F0C6F910BD3A2010BD0000A815002010B5044600786178E2780843A17811430843217908436179084305D005F040F8002803D00C2010BD122010BD204603F0EC
:403F400013FB002010BD000010B5FDF717F903F097FC044805F0F2F903F048F9012000F003F810BD50150020F1B586B003A8009005A801902A489F22817A114081726846C4
:403F8000FDF760FB002849D169460989C90705D0244806990068C2686846904769460989890706D5002839D11F480068816A06988847002832D11D4E0025757075737571F5
:403FC000F575357675767575B570F570B5713746F5730120D03738731F20F880FF2130467972A0300176457600F02AFB04F0F0FC02F0FAF800242046069902F0A7F800287A
:4040000003D1641C2406240EF5D0FD720749BD72B573C0310D704D704D600D7207B0F0BD401500208C0D0020700D00208815002070B505460E46084603F000FC04463046F1
:4040400003F016FC0121A9400A46224001400A4301D0012070BD002070BD10B50446084603F006FC0121A140014201D0012010BD002010BD10B5FEF735FC032804D102F063
:40408000DBFD0120FEF7CCFC10BDFEB51C4616460F46054602F0EEFBA878FFF7CDFD02460190334639460094284600F00DF8002808D1A8780199FFF7C5FBFF2C02D13846FC
:4040C0000EF0B0FFFEBD0000FFB585B005460E980C46FF2810D02B49C00009680A5840180179C0795278814201D9012601E09006860F6846038108E06078A1788006860F53
:40410000E0780002014368460181284602F0A0F8070007D021462846079A00F040FD384609B0F0BD304600F051FE04AE0346039002AA29460096204600F007FC3C20405D0E
:40414000002818D0284602F083F8012813D0684600890096C0B20190A878231DFF22079902F0FCFE68460089039BC2B2A878079903F0D4FAD3E7684600890021C0B200918C
:40418000E9E70000880D0020F8B5002600253046FFF7E6FC07001DD090201149704340186030447F12E0601CFDF7C2F8CCB23846E040C007C00F07D02146304602F080FCE8
:4041C00021463046FFF77CFD6D1CEDB20548018AA942E8D8761C3606360ED7D0F8BD0000881500207416002070B50024094D03E0002C01D0002000E028464121095C012915
:4042000001D100F082FC641C2406240EF0D000F03FF870BDA815002010B502F0E7FF0020FFF7A2FE0EF094FF002010BDF8B5002400F004F90125012800D1012404F064FB4A
:40424000012801D102200443104F00203E4620360423082203E0002801D0002100E031460979002907D001290BD002290BD0114681402143CCB2401C0006000EEBD07C703E
:40428000F8BD2C43F7E71C43F5E700008815002070B5144E0024F07BC00921D03546203503E0002C01D0002000E0284601F0C6FF012814D0641C2406240EF2D0F07B400604
:4042C000400EF073002403E0002C01D0002000E0284600F01AFC641C2406240EF4D0002070BD00008815002010B5FFF79FFF10BD10B5044606F025F9002802D1601C00F03B
:4043000001F810BD1CB500240094062269460194FDF72AF9002800D1122420461CBD000070B50E4CFCF761FE0546FEF7DBFA062802D02078012803D02846FCF75AFE70BDDD
:40434000FCF7AAFC2846FCF754FEFEF7CBFA0628F5D020780028E5D170BD0000320D002010B5FCF742FE0446FEF7BCFA012809D0FEF7B8FA022805D0FCF78EFC2046FCF7D7
:4043800038FEEEE72046FCF734FE10BD10B50B4681791943817103D08078114603F076F910BD10B582798A43827102D1807803F081F910BD30B50C4C0220A28A0B4B997874
:4043C000002901D0022906D11D785B78EB18282B01D9032002E0032900D101205105490DC0020143A18230BDC0112E40400D002000B500F029F8002807D0012805D00328AA
:4044000001D0042801D0002000BD012000BD014600B50020C90701D000F010F800BD014600B50020C90701D000F008F800BD00000148006870470000380D00200148008879
:40444000000A704720102E400448008B410501D5042070474007800F7047000000102E400148406870470000380D002038B50446000610D5FFF7E8FF01280CD1684602F052
:40448000EBFB6846007800F08EFB012002F06EFA0220FFF729FF600708D507480179012904D1002101712620FFF766F90348006801692046884738BD440D0020700D00202D
:4044C00010B501460A4A007800241070FFF7B6FF0128084603D002F0B3FF204610BD00F0E7F80400F9D1034801210170F5E70000400D00204816002070B50446FFF79EFF30
:40450000002801D00C2070BDA27B01211F48002A827801D00A4301E05208520082706279012A14D0C17849084900C170184D2868016820468847207901280CD06188208812
:4045400004F030F82080207904280FD015E0C2780A43C270EAE72868C168E01D8847E01D02F0EEFF0B48808C208006E02868C168E01D8847E01D02F0E3FF074920798870DF
:40458000204602F06BFF002070BD000088150020700D002040150020400D002008B50178FFF74CFF814201D10C2008BD002914D0072069460870FFF71BFF012807D1012125
:4045C000684600F0D5F8012801D0092008BDFFF7F1FE02F077FF012011E0FFF709FF012806D1684602F038FB6846007800F010FB02F05EFFFFF722FF0028FBD10220FFF7A5
:4046000073FE002008BD000010B501460A4A007800245070FFF712FF0128084603D003F015F8204610BD00F05DF80400F9D1034801214170F5E70000400D002048160020EC
:4046400038B568460EF084FC002801D01F2038BD01210098C90201804180002505714571857107214173857302F0F8FE009C202200212046FCF790FF25702A460021601CA1
:40468000FCF78AFF204602F0DBFE204602F0DEFF00980EF0C7FC062200210448FCF77CFF02480C388560002038BD0000440D0020F8B504460025684600950EF049FC0028F9
:4046C00001D007250AE0064E009830602278611C401CFCF758FF3168207808702846F8BD380D0020F8B504460025684600950EF02FFC002801D007250AE0064E0098706016
:404700002278611C401CFCF73EFF7168207808702846F8BD380D00200346084800B5834209D8184600F0EAFF002804D00089984201D1012000BD002000BD0000FF0E000041
:40474000074A9179491C8906890E917138220A4092014907090E1143084302490840704788150020FF0E0000C006C00E70470000F8B507460E4600240D4803E0002C01D00E
:40478000002500E005462979002905D0641C2406240EF3D00020F8BD0021204601F0D6FC2E712046FFF7CCFF28813C700120F8BDA815002010B504F09DFC0222002100F0F6
:4047C00003F802F0B3FC10BD10B5094B40074907000F090F185A595A40185043C0086421FCF7A6FD002800D1012080B210BD00001C540100F7B53D20405C88B015460C4672
:40480000002802D02878042802D200200BB0F0BD6946087200262046FFF708FA012800D00126204603A938300191009023460327A17E34333246206A04F0A0FD02A80899F6
:4048400000900B46019120463A4603A9243004F0DBFB02466846007A2870204601F062FC1046D3E7FFB587B00C4605461078694608723D20005D1746002826D0002620464E
:40488000FFF7D4F9012800D00126204603A93830019100902346A17E34333246206A04F06DFD02A80090291D019120462B1D03A924300A9A04F0A8FB02006846007A38804D
:4048C00002D1204601F02EFC10460BB0F0BDF0B505463C20405C89B016460C4600280CD0307869460873002806D000272046FFF79DF9012803D003E01F2009B0F0BD01273E
:4049000003200890204604A93830019100902346E17E34333A46E06904F030FD6846007B03A928180290009120462B46019504A92430089A04F09CFB02466846007B307022
:40494000204601F0F9FB1046D7E7FFB505463C20405C89B016460C46002810D0084601F077FC01280BD0308869468883002809D000272046FFF75AF9012805D005E00020F0
:404980000DB0F0BD0220FBE70127204603A93830019100902346E17E34333A46E06904F0EDFC291D2B1D07A8129A6D4607C5204603A924300C9A04F05BFB02466846808B31
:4049C0003080204601F0B8FB1046D9E710B518490446484028D0002101231A468A40904221D0491C2029F8D300212046C840C243520618D0400616D0491C1929F5D3A0B28B
:404A0000210C020AC3B2884201D193420BD01F21204600F0E0F9182805D8A00E062100F0DAF9022801D2002010BD012010BD0000D6BE898E70B50D460446FFF7F7F8012805
:404A40000AD0E87AA97A00020143A07802F038FA012808D0002070BD00222421204603F0DDFC242070BD28214C200155204600F049FD282070BD0000002801D0002000E0E8
:404A800003484030C07F012800D0002070470000A81500200146002049070ED50021084B03E0002901D0002200E01A461279022A04D0491C0906090EF3D07047012070479A
:404AC000A81500200146002049070ED50021084B03E0002901D0002200E01A461279022A04D0491C0906090EF3D0704701207047A815002010B5044680346068002803D0C1
:404B00000EF0A4FA0020606010BD38B50546002000902846FFF78AF801281FD1284601F082FB00281AD028792C46C01E40340300FCF73CFF070505111105111411002846E5
:404B400001F08CFB012806D068460EF011FA002805D0012008E060780028FAD038BD2846009903F0FDFA0220607038BD40304170704740308170704770B5054640352878F5
:404B80000C46052904D0002C05D1801E022802D8022003F0B3FC2C7070BD0171704792001018C166704770B53C2501F0D5FD040004D020460021433002F004F9FF22294615
:404BC000204600F045FD002C02D0A07801F040FD70BD000010B5002801D0002000E00348002802D0008905F054F910BDA815002010B5002801D0002000E00448002804D02E
:404C00000179072901D100F09FF810BDA815002010B501F0A1FD002802D0807801F018FD10BD70B5044605464034A078002805D12078012802D1284601F078FC6078012802
:404C400002D12846FFF761FF002070BD70B50546008A00281ED01049F122897A1140C90618D5294640314A8A098A521C4A4392B2D10800D10121540801E0621A94B2A04291
:404C8000FBD9FEF76BFC012804D1298AA878224602F0ECF970BD00004015002010B50023054C0B60248A944204D992001018C26E0A60C36610BD000074160020FEB506461A
:404CC0000020009001908020855968460EF050F9002801D00720FEBD20213046009FFFF760FB34464034A08AE080608AA080208A2081304603F092FCA88C218A884207D139
:404D0000288A618A884203D1688AA18A884203D0F07920210843F071688AA082288A6082A88C2082E98CE182FEF7D0FDE081208AFEF7DCFD60733946304603F039FA012028
:404D4000A0700198FEBD000038B5044600200090A079002814D14020015D052901D00E290ED168460EF004F9002809D12046009903F032FB03481021C28A2046FFF706FB00
:404D800038BD00004015002010B50446807803F075FC204601F0E8FB002010BD10B50B4604460146184602F0D1FD002802D020460EF042F910BD13B5044601AA1146062092
:404DC000FDF778FC6846818861811CBD002800D102207047704770B500231A46491E0CE00446D440E507ED0F541C0646E640F407E40FA54200D05B1C521C8A42F0D3D8B28A
:404E000070BD0000F8B504462346401D543300909A1EA078911E01F043FF25464035A88A298A8000FCF784FA401E81B2688A884203D96982A07802F0CDFC698A8C20015131
:404E400020460021433001F0BDFF27480088E88104F050F9E989891C8AB26179FFF7B4FC02F064F904F046F92A8A6179FFF7ACFC074602F04FF9688A002806D01B49088A00
:404E8000032212021043088202E0002002F096FC1648803801886E8A002E0CD0304648431349FCF72FFB0004000C01D0401C80B21049488002E00F4800214180288A70432B
:404EC00081B2A07802F0D0FBFF2228374932B9B21346204603F08CFBE98AA07802F0FCFAA07801F023FEF8BD80102E40E0112E40710200004A0D002030B50021124C0A46BE
:404F0000A05C002308E0C50701D0491CC9B201290AD840085B1CDBB20028F4D1012903D8521CD2B2052AEBD302290BD207488118C87B0122082B03D29A400243D0B200E0E5
:404F40001043C87330BD000058160020881500207FB504468034616805460E46183108226846FCF710FB31462031082202A8FCF70AFB102168460DF095FF6068102108307D
:404F80000DF090FF60682B46083024331022694604F05AF87FBD10B504460821FFF701FA10212046FFF7FDF92079052822D0062820D008281DD12189002004F0B5FE072002
:404FC00020712046FEF732FE012819D00E212046FFF7D2FD002158200155204601F04AFB2046FFF787FD2046FFF730FE2046FFF718FE10BD20890122002104F079FEDEE7D8
:405000000521E4E7FFB581B01F4604460821FFF7C8F910212046FFF7C4F92079082803D0092804D0042503E00425012601E009250026204601F0EEF800212046FFF79CFD3C
:4050400025712046FFF756FD0398002E02D0012808D00BE001280AD120890022029904F047FE04E02189029804F05EFE01272046002140300176012F07D0204601F0FAFA61
:405080002046FFF7CEFD05B0F0BD02990173204603F0F0F9054605480121C28A2046FFF775F9002DEFD109202071ECE74015002070B50C460546FEF7B9FD012809D10821BE
:4050C0002846FFF76EF90023012221462846FFF799FF70BD10B5044601F09CF82046FFF709FD00212046FFF747FD10BD70B505461A24FEF79BFD012809D108212846FFF7C0
:4051000050F90023012221462846FFF77BFF70BD38B505460021684600910DF029FF002801D00D2038BD2846009C01F0CBF82146284603F0FBF806480821C28A2846FFF7F6
:4051400025F906212846FFF717FD002038BD000040150020F8B50446002000900E4668460DF006FF002801D00D20F8BD204604213430009D00F0BDFA8420005908211830C1
:4051800000F0B7FA012E02D1204601F09BF82946204603F053F806480821C28A2046FFF7F5F802212046FFF7E7FC0020F8BD00004015002010B50446FFF7CAFE0321204640
:4051C000FFF7DAFC204601F055FB10BD10B50021FFF7C0FF10BD000038B504460021684600910DF0C5FE002811D12046009A01F011F81146204603F0A4F805480821C28A9E
:405200002046FFF7C3F807212046FFF7B5FC38BD4015002038B504460021684600910DF0A7FE002810D12046009903F018F907480821C28A2046FFF7A9F804212046FFF731
:405240009BFC204601F016FB38BD00004015002010B5FFF7A0FE10BDF8B50446002000900E4668460DF084FE002801D00D20F8BD8420005908212030009D00F03AFA2046FF
:405280000421383000F035FA002E02D1204601F019F82946204602F0F8FF0F480821C28A2046FFF773F8204601F05BFA00280AD0204600F027F8002803D009212046FFF7E4
:4052C0005BFC0020F8BD08212046FFF755FC204601F0D0FAF5E700004015002010B54021095C082906D0092908D00A2901D100F097F810BD0B21FFF73FFC10BD00F002F839
:4053000010BD000070B504460079052805D0062803D0082811D00C2070BD03220621204603F07CF80F480821C28A2046FFF72EF811212046FFF720FC12E025460621403541
:405340002973204603F096F80646AA8A0A20424301212046FFF71AF8002E01D109202071002070BD4015002038B504460020009068460DF0FDFD002801D00D2038BD204662
:40538000009D00F0CDF908202071204600F09AFF2946204602F0D5FF00213D2001550F212046FFF7E9FB204601F064FA002038BD10B5024600F02EFF10211046FFF7DCFBCB
:4053C00010BD10B50446FEF731FC012809D04020005D112805D100231A4606212046FFF711FE10BD10B5FFF7D6FD10BD38B504460021684600910DF0BBFD00280DD12046EC
:40540000009903F02CF805480821C28A2046FEF7BDFF0D212046FFF7AFFB38BD4015002038B504460021684600910DF0A1FD002801D00D2038BD2046009903F005F80648BB
:405440000821C28A2046FEF7A1FF0C212046FFF793FB002038BD00004015002000787047F8B5002569460D70002801D0002400E0204C002C18D0204600F0D5FE002813D03D
:40548000207903280BD005280CD026464036B18AA07802F0F3F8B078012806D020E00420207120E006202071F8BD0021204602F07DFA274680373868002802D00DF0C6FD7C
:4054C0003D600020B0702046FFF7ABFB2079072802D12046FFF7BAFB0221204601F0E4F920790428E0D1207A694608703420FEF743F9F8BDA815002010B54C22115400F0F4
:4055000052F810BD10B50446FF21FEF74AFF09202071A07802F0D8F810BD000038B5FF216A461180002801D0002400E00B4C002C12D011460620FDF7BDF868460188204613
:40554000FFF739FC204600F089FE002804D104480068C1692046884738BD0000A81500208C0D002010B504468079002809D022214C200155FF212046FEF713FF204600F097
:4055800012F810BD10B5037902464032002B03D01173092B02D003E0002100E02221117300F001F810BDFEB50446008900270090278120792646403600281AD0012818D0AD
:4055C000022816D0002002F099FF09E002AA01A9204602F0A9F9002807D101980DF02CFD204602F0C9F90028F0D02046FEF74CF9B776254680352868002802D00DF026FD60
:405600002F606868002802D00DF020FD6F60317B002919D0009800F065F8A078002101F0C5FA2046FFF7C6F8A07801F033FCA07801F00EF8FF212046FEF7B3FE0B20FEF7EF
:4056400053FE00F0A1FEFEBD1F213173E2E70000F8B517460E46054603F036FD04003CD020460C3001F09EFB2046062200211830FBF792FF2046062200211230FBF78CFFEF
:405680001648224600683946436A28469847074626702846FEF7CAFA012148406070002D10D02889608028464030C1782171002E0FD169796171018AE180418A2181808A53
:4056C000608106E00648008BC005C00F2071002060803946204604F0AAFAF8BD700D002000102E400A4610B50146002004F0E9FB10BD10B50DF0B2F910BD000000B5014641
:40570000FFF732F8002801D0002000E00348002802D002898A4200D0002000BDA815002038B5044680346068002806D168460DF02FFC002801D100986060606838BD000093
:4057400010B5014600F084FD0128887802D0FEF777FA10BD90214843024940186030007F10BD00008815002070B5054604464035A87F012811D1A1789020084A4843801867
:405780006030067F3046FEF753FC002805D10220A877A078314601F037FC70BD8815002010B50C4CA07A002813D0FEF7EDFC0A48027F417F408B00F0FBFD012809D10020B5
:4057C000A07201F067FA05498989090B01D000F0AFFB10BD5816002088150020A0102E4070477047490510B5490F0B00FCF7DEF8060704080C0C0F073E21FFF77DFE10BD9F
:405800000821FFF7BFFE10BDFFF7CDFE10BDFFF7A9FE10BDF8B507460025002D01D0002600E0204E01F0D8F93046403044890021418101F0F5F9304600F0F5FC01282BD183
:40584000A00702D52846FFF70BFEE00602D52846FFF764FEA00601D5FEF796FC600601D500F024FD200602D5284600F01DF8600702D5284600F004FC380402D52846FFF7E7
:40588000B7F9780402D52846FFF7A4F9E00703D021463046FFF7A6FF6D1C2D062D0EBCD0F8BD0000A8150020F8B5002801D0002400E0314C002C5DD025464035A8780128F4
:4058C00058D1FF278820493700593E46002805D02A49897A890601D5878AC68A2046FEF7A5F901280CD10096E88A2A8A3B46014602F05CFEE882A2780146104601F0ECFD51
:405900002046FEF793F9012834D003F0F3FB2A8A6179FEF759FF009001F0FCFB00983346283081B23A46204602F062FEE98AA07801F0D2FD12480188688A124E002810D0C3
:4059400048431149FBF7DEFD0004000C01D0401C80B27080A07DC107C90F002001F000FF01E000207080288A698A484381B2A07801F07AFEF8BD0000A8150020401500206D
:4059800060112E404A0D00207102000001490968096808478C0D002070B505460088FFF7ADFE04002AD000F03EFC002826D02079092823D0204600F067FC012820D0204616
:4059C000FEF734F90646E07920210843E071204602F004F8002815D0294600F03DFF4220005D002810D02325E079DF210840E0712946204602F041F9284670BD022070BD1B
:405A00003A2070BD072070BD002E05D02046FFF755F90500E8D1EFE70C2070BD70B50E460C2500F07DFE040012D0002522892946094803F04FFEFF2202212046FFF708FE80
:405A4000A07801F08FF82046FFF7ADFD022000E000203070284670BD0E200000FEB5044600F05EFE002801D00C20FEBD022101A8FEF77EFE012859D168460079304F00287E
:405A800001D0002601E03E462036002E4ED000213046FFF771F83546002040356870A8700620FEF721FC208A6882228AE189A08902F0E0FD28820246608AFF23A882493374
:405AC0000093E18AA08A02F071FDE882288AFDF70DFF6873288AFDF7F9FEE881184806228778A11DB030FBF74EFD207901281FD06079E870A01D01F023FDFB200740104855
:405B00008770217EC278012917D0FB210A40C2700C4821460068826830469047B178204601F0E0FA3046FFF72FF9FEBD0920FEBD0020E87004200743E1E704210A43E6E718
:405B400088150020700D002070B50D460026194A0146002801D0002401E014462034002C26D0204600F074FB01280AD19020484380186030007FFEF75BFA002801D102F0D4
:405B8000EBFB0D48006881692046884700280CD020464030817EA94202D3491B817600E086762089294604F000F9204600F062FE70BD0000881500208C0D002070B5034687
:405BC0000088FFF79BFD040013D000F02CFB00280FD02079092819D02546997840352973204602F047FC0646A878012803D0AA8A02E0022070BDEA880A2042430121204639
:405C0000FEF7C4FB002E01D109202071002070BD0EB5002217216B460292198100905A810120029B00990DF0B1FA0EBDF8B518480024807A002822D1164E0025B089000B65
:405C400022E0204601F0E0F81249A039401807882A462146384600F0ABFB012810D00E480122478305770A4944778A72002D01D0002000E02030002801D000F0FBFDF8BD37
:405C8000B089000B641CE4B20028DAD1F8BD000058160020A0102E408815002010B50446C0060ED500200B4A03E0002801D0002100E011460979022909D0401C0006000E42
:405CC000F3D00548006881692046884710BD00F04DF8F6E7A8150020700D002010B50088FFF70CFD040007D04020005D082805D00B2803D00C2010BD022010BD2046FFF781
:405D000001FB002803D009212046FEF735FF002010BD70B503460088FFF7F0FC040008D0254640352878082805D00B2803D00C2070BD022070BD8420005910220830991CC3
:405D4000FBF721FC2046FFF703F92878082804D02046FFF765FB002803D00A212046FEF70BFF204600F086FD002070BD70B51C4D002801D0002401E02C4620342179022994
:405D800004D0002901D001F09FFC70BD01225B210A5501F057F8032020710820FEF7A4FA00212046FEF7E8FE0121204600F07CFD204643300121064601F004F8094800686F
:405DC000016A30468847024600212046FFF740FCA078FFF7DBFDA87B401CA87370BD000088150020700D002010B50C46002121700088FFF783FC03000BD000F014FA002821
:405E000007D00948F121807A0840C00603D4112010BD022010BD022020701A8A1889002104F06CF8002010BD4015002070B50088FFF764FC040008D000F0F5F9002804D0D1
:405E4000E079C10903D0002070BD022070BDC1068025002908DA2843E07108480221C28A2046FEF793FAEEE7204600F065FA0028ECD1E1792943E17170BD0000401500208D
:405E8000F8B50F46002100910088FFF737FC040012D000F0C8F900280ED0E079410641D4617E02264A07002A08DB8907402500291ADA2843E07135E00220F8BD03F004F91C
:405EC0000021017021894180A1898180217E4170E189C1803E7005460178134803F0BAFC284603F0AEFF1DE0204600F0B7F9012806D068460DF03CF8002803D00720F8BD43
:405F00002A20F8BDE07900992843E071204602F0DBFA607E0421304360760448C28A2046FEF734FA0020F8BD1D040000401500203EB500220F236C4602922381009101905C
:405F4000628169460EC900200DF020F93EBD0000F8B50F46054600F0FFFB040033D003202071254600264035EE76E6702046FEF749FF01F09DFA0920FEF7B6F9A07800F0D5
:405F800077FF0121204600F08FFC00212046FEF7F3FD6E70AE703A4600212046FFF758FB0B49887B401C8873A078FFF7EFFC00F0B7FB040006D00648B03001F0C1FA20464D
:405FC000FEF7E2FEF8BD284601F07EFBF8BD000088150020F8B50446002000902088FFF78DFB05001AD0FDF721FE002812D02348807AC00710D0284600F015F900280DD077
:40600000287903280CD004280AD0072808D009282AD103E00C20F8BD1120F8BD0220F8BD2F464037387801281ED02846FFF778FB06001BD00822211DFBF7A5FA3046A178FB
:406040002030017261881022090A417221460C311838FBF798FAB878002809D001212846FEF78AFD0098F8BD0D20F8BD0720F8BD284600F05BFA0090F8BD0000401500204F
:4060800010B5002801D0002400E00B4C002C11D0214640314878022801D100204870A07DC107C90F002001F05BFB2046FEF7B9FDFEF79AF810BD0000A815002070B503467A
:4060C0000D460088FFF71AFB04000BD000F0ABF8002807D01248F121807A0840C00603D4112070BD022070BD20464030418A008A491C41430804C10C5888884201D21220B5
:4061000070BD20822079072802D12046FEF79EFD022028702089002103F018FF002070BD40150020016A491C016204D1817E491C4906490E81767047C169491CC16104D169
:40614000C17E491C4906490EC1767047F0B5064687B003A8009005A800270D460190002E01D0002400E01C4C002C05D06846FBF769FA002803D00BE0022007B0F0BD684643
:406180000089C00704D1902200212046FBF704FA124829460068826820469047050018D1A6706776277100212046FEF7E5FC204600F030F8204601F0DBFB094820825E2047
:4061C00007550848F121807A084000D001202075E782E8B2D1E70000A81500208C0D0020B80B00004015002010B50020074B084AFF2119541418401CC0B221740428F8D3F4
:406200001F2119541018017410BD00005816002088150020002101628176C161C17620300177417770470079002805D0012803D0022801D0012070470020704740304078AD
:40624000012803D0022801D000207047012070474030807F002800D00120704740300078002807D0012805D0052803D00E2801D0012070470020704710B5807801F0F8FAFE
:40628000002800D0012010BD074A0146927B0020002A07D040314A78022A02D08978012900D10120704700008815002010B500F0F1FC03498989090B01D0FFF739FE10BD91
:4062C000A0102E4070B5054604464035A87F002825D1FF206075A0789021154A484380186030417F9023491CC9B24177A0785843104B8018DB896030994201D30021417710
:40630000A0789021484380186030467F0677A1783046FDF78DFE002802D00120A87770BD0220A877A078314600F06EFE70BD0000881500207416002038B500210546009180
:40634000FFF78CFF012806D068460CF011FE002803D0072038BD2A2038BD2846009CFDF765FC00280BD02146284601F0A9FF05480221C28A2846FEF709F8002038BD112058
:4063800038BD00004015002070B50024074D03E0002C01D0002000E02846FEF742FC641C2406240EF4D0002070BD0000A8150020F0B515468207920F85B0000A02926A46DE
:4063C0009080002D01D0002400E0564C002C28D0084600F019FD07466846808800280BD00298012843D0022841D003280BD03D20005D012879D08FE04B48381801882046E7
:40640000FEF7D9FC88E00020029002A80CF090FD002807D03D20005D012802D12046FFF781FE7CE06846029E8388324600213846FCF734F83C48381801882046FEF7BBFC5B
:40644000284600F099FB01AA21463046FEF7D2F9002806D030460CF0DBFD3D204C21085531E0F5773146204601F086FC57E0002000902089039068460CF04AFD002802D098
:40648000002005B0F0BD6846009E8388321D00213846FCF703F82448381801882046FEF78AFC284600F068FB2046FFF7BCFE002805D025464035287E002810D107E0304641
:4064C0000CF09CFD2BE02046FFF71CF827E001AA21463046029BFEF7C5F9002806D030460CF08CFD3D202873EDE712E00298FEF771FC0399317003990001090A01437170E8
:4065000068468088B070000AF0703046FFF780FB05E02046FFF706FE284600F02DFB0120AFE70000A815002000102E4070B501790546032904D0042904D0072908D109E07A
:40654000052400E006240121FEF704FE002805D00D2070BD0824FEF7DBFDF7E7284600F089F92C71002070BDFEB5064602F0ACFD044602F0A2FD074602F095FD054602F054
:40658000A7FD029002F0B6FD01902570280A6070280CA070280E3546E0704035687B20716771380AA071380CE071A87B2072E8892549000A6072287CA072288A0522000AE1
:4065C000E072A87C2073688A000A6073287DA073A88A000AE073204610300091FAF7D3FF0027F770B078009901F082F8777101984101029867750143A175080AE07503E0EB
:40660000298A49004018308000F068FB3188042200F062FC01283088F2D00C4F38801821204600F047FDA88A298AC000FAF780FE3881B07800F06EFAE98AB07800F04CFF2A
:4066400000F086FAFEBD00009815002000122E4010B5074A917B002901D0491E91730021FFF774FD002801D0002010BD012010BD88150020F8B5074606464037B87F0028E6
:406680002DD0B078902100904843234945186035287F0099FDF7E1FC01281ED0287F401CC4B21E48C089A04200D800240020B877FF276F772F77A87702460146009800F026
:4066C00049FE717DFF2903D0304601F012F9777501F042FE0025114F19E00320B877F8BD00200090224669463046FEF7D7FA0099002904D0FF231A463046FDF7C6FC641C8F
:40670000F889E4B2A04200D800246D1CEDB2F889A842E5D8F8BD0000881500207416002000B5022000F002F800BD000010B502460021084B03E0002901D0002000E01846BE
:406740000479944204D0491C0906090EF3D0002010BD0000A815002000B50120FFF7E6FF00BD10B5044602F0AFFC2189018080346168416061682831816003F0EFFA10BDCB
:40678000F7B50646087982B00C46092807D0A078F0770846FFF75CFD012806D010E030460CF04AFC022005B0F0BDA1789020294A484380186030007FFDF73AFC012810D0EC
:4067C000A078FEF759F901280BD037780121304601F0B0FC25462035062F38D00B2F0FD107E06846027C21463046FEF7D7FA0D20D9E72046FDF71AFA012801D10020287770
:406800002046FEF79DFF054604AA21463046FEF75EF801205F2108556946097C002001910090A07833463A46294600F097FB69460A7CA0780323294600F070FFA078294602
:40684000FDF700F830460CF0F7FB0020ABE70120D5E70000881500208A8802804A884280CA8882800A89C2808A890281498941817047000010B502464032937F0021002B6D
:4068800003D1927E002A00D00121064A927A002A00D000210279092A00D10121807800F07FFF10BD5816002070B50C460546FDF7BDF900280BD1012C06D92879092806D0DB
:4068C0002846FFF7D9FC0446002C02D004E0012402E0A87DC007FAD1A87DC107C90F204600F03EFF70BD00000B4B01280BD002280BD004280BD008280CD10748A0300282DA
:406900000548A83005E0202002E0382000E05020C01801807047000000102E40014908817047000000102E4010B50446FF20F130012C04D0022C05D0042C08D105E0FF208D
:40694000D53004E0FF20D93001E0FF20DD30002200F058FF034A108A034980B2A0430880108210BD00102E404E0D0020034B198A034A89B2814311801982704700102E40CA
:406980004E0D002010B50446012806D0022C07D0042C11D0082C07D111E0FF20D53001E0FF20D93000F026FF0648018A064A89B221431180018210BDFF20DD30F2E7FF202C
:4069C000F130EFE700102E404E0D0020034B198A034A89B2014311801982704700102E404E0D0020F8B505460120A84086B214460F46012231467C2000F004FF3A46314606
:406A0000782000F0FFFE6078267800020643E078A2780002024360792379000203430C2045430D2080010549281844182680001D44182280001D40180380F8BD00102E4062
:406A4000401880B270470000CB065B0E0343480901021943D00108430121C902084301490881704780142E404278037812021343084A1382C37880781B02184390824878C2
:406A80000B78000203431383C8788978000201439183704700142E40024A1080000C90801181704700142E40044A002180180288491C89B21029FAD37047000000102E4072
:406AC000024A10820148803081817047A0102E407047000010B5054A1082084600F0B6FE024A0021A03A8018018010BDA0102E4010B50B46044600F005F819462046FFF746
:406B0000DFFF10BD024A10820148803001817047A0102E4010B504490882FF20012220211D3000F06FFE10BDA0102E4010B504490882FF20002220211D3000F063FE10BD3F
:406B4000A0102E400149088070470000C0102E4000B50349442008800420FFF737FF00BD00102E400349088202494520A039088070470000A0102E40000202494D300880AA
:406B80007047000000102E40034A1082024880308088401880B27047A0102E400249888A0422904388827047C0112E4010B5084B074C0202A03B0029208202D075321A80E2
:406BC00010BD04490020088088807632F7E70000A0102E40201A2E4000B5034908884880FFF7C4FE00BD00004E0D002010B50120FCF7DEFD01495020088010BD00102E40F5
:406C000006490E220028888806D01043888003495120C039088070479043F7E7C0102E4000B502484088FFF7D1FE00BD4E0D002010B5FBF731FE10BD014952200880704716
:406C400000102E40884201D8081A03E00022D243101A401880B2704700210170704710B50B4602460021F820FBF718FC10BD00000748808806492039098B884201D8081A41
:406C800003E00022D243101A401880B27047000020112E400148008AC0B27047A0102E4070B5084C049D2082074804890548603006880E8001891180808818806007400F94
:406CC000287070BDA0102E40E0112E40024908820148803080887047A0102E400148008970470000C0102E4000280FD00D4A108B0870000A4870908B8870000AC870094807
:406D0000203000880871000A48717047064A10880870000A487090888870000AC8701089F0E7000040102E40C0112E4000B5024A00F004F800BD0000FF7F000000B5134671
:406D4000FFF780FF984201D8022800D2002000BD0148008A70470000001A2E40024908820248008970470000A0102E40001A2E40014880887047000020102E400249088280
:406D80000148803000887047A0102E400148808A7047000040102E400148808B7047000020102E40064B1A8999891B8A0270120A42708170090AC1700371190A41717047DC
:406DC00060102E40012904D00549098BC90B017070470349403109898907C90FF7E7000000102E40024908820248008970470000A0102E40201A2E40024800884005C00FBB
:406E000070470000001F2E40014840897047000074160020024908820248808970470000A0102E40001A2E40044A10820448028980894843101880B270470000A0102E409C
:406E40007416002000B5084908829021074B4143C918FF2260314A770A7700228A77114600F078FA00BD0000A0102E40881500209021074B414300B5C918FF2260314A7778
:406E80000A7700228A77114600F064FA00BD00008815002090225043074A10B58018FF21603041770177002181770448418EFF201D3000F09FFC10BD881500204015002012
:406EC00000B5044A1082034880308088022200F003F800BDA0102E4010B50023884201D8081A03E00024E443201A4018044980B2884201D8824200D90123184610BD000095
:406F0000FF7F0000024880880006C00F70470000C0102E4002488089C007C00F70470000201A2E4070B55478157824022543D47888232602947834435679127936023243BA
:406F4000002900D09823044908820348A038181805808480028170BDA0102E40FFB581B014460D4607460A9E0B9BFFF75DFF002E0AD0009333460021049AFBF71FFB054831
:406F80004019C45505B0F0BD0021049AFBF7FCFAF5E70000520D002070B502460448054D808808242C800B460021FBF7EDFA70BD74160020A0142E4010B521240246640115
:406FC000044953200880102300212046FBF7DCFA10BD000000102E40417802780902044B0A431A83C1788078090208439883704760142E40034A108280200143014880300E
:4070000001817047A0102E40054A1082044A6032908B0009000108439115084390837047A0102E4030B500210F4B0A46012809D0032802D005280AD107E040211981022133
:407040000A2204E004210C2201E004210D221882054C20342088C0B205460D42FAD022800021198230BD000080142E4010B5044607480482074801808280032189030820E0
:40708000FFF780FC200202497530A039088010BDA0102E40201A2E40054A1082044A60321183000202494B30A039088070470000A0102E40024610B50B460F2000218001D6
:4070C000FBF762FA10BD0000054A491E1082044A60321183000202494C30A03908807047A0102E40017E012901D9012101764279C9B253000B430179CA001A4310210A43A8
:4071000003490A8102880A80408888807047000040102E400349884200D908460249088070470000FF0F000060112E400349884200D908460249888070470000FF0F000016
:4071400060112E400148008B70470000E0102E408823002900D09823084908820748A038191808881070000A507088889070000AD07008891071000A50717047A0102E40CF
:4071800010B51446024606480B46C0880021FBF7E1F9012C02D103495420088010BD00007416002000102E40064A11880170090A417091888170090AC170034954200880A3
:4071C0007047000080142E4000102E400148008B70470000E0102E400121814010B589B200227C2000F00EFB10BD0000FEB5FF210120FFF799FB3F210220FFF795FB1F2142
:407200000420FFF791FBFF210820FFF78DFB3020FFF7ACFB4148802101804148414D00784007400F022873D001286FD100202880002211460320FBF73DFA3B4E3B48B18D78
